:100000000C9434000C943E000C943E000C943E0082
:100010000C943E000C943E000C943E000C943E0068
:100020000C943E000C943E000C943E000C943E0058
:100030000C943E000C943E000C943E000C943E0048
:100040000C943E000C943E000C943E000C943E0038
:100050000C943E000C943E000C943E000C943E0028
:100060000C943E000C943E0011241FBECFEFD8E04C
:10007000DEBFCDBF0E9440000C947C000C940000B9
:100080008AB188668AB9219A84B5836084BD84B5B3
:10009000806A84BD85B5826085BD80918000816065
:1000A000809380008091810088608093810080919E
:1000B00080008068809380008091810082608093BE
:1000C00081008091B00083608093B0008091B00087
:1000D00080628093B0008091B10082608093B10013
:1000E00024E627BD28BD84E690E0909389008093A4
:0C00F00088002093B400FFCFF894FFCFED
:00000001FF
